:020000040800F2
:1000000000000220C1210008392100083B2100081E
:100010003D2100083F2100084121000800000000A8
:100020000000000000000000000000004321000864
:100030004521000800000000472100084921000870
:1000400011220008112200081122000811220008C4
:1000500011220008112200081122000811220008B4
:1000600011220008112200081122000811220008A4
:100070001122000811220008112200081122000894
:100080001122000811220008112200081122000884
:100090001122000811220008112200081122000874
:1000A0001122000811220008112200081122000864
:1000B0001122000811220008552100081122000811
:1000C0001122000811220008112200081122000844
:1000D00011220008112200081122000865210008E1
:1000E0001122000811220008112200081122000824
:1000F0001122000811220008112200081122000814
:100100001122000811220008112200081122000803
:1001100011220008112200081122000811220008F3
:1001200011220008112200081122000811220008E3
:1001300011220008112200081122000811220008D3
:1001400011220008112200081122000811220008C3
:1001500011220008112200081122000811220008B3
:1001600011220008112200081122000811220008A3
:1001700011220008112200081122000800000000CE
:08018000112200081122000801
:1001880010B5054C237833B9044B13B10448AFF3C9
:1001980000800123237010BD14000020000000001F
:1001A8005C22000808B5034B1BB103490348AFF3B1
:1001B800008008BD00000000180000205C22000834
:1001C80053B94AB9002908BF00281CBF4FF0FF31B6
:1001D8004FF0FF3000F072B9ADF1080C6DE904CEB4
:1001E80000F006F8DDF804E0DDE9022304B070470A
:1001F8002DE9F047089E04468846002B4BD18A42D9
:10020800154667D9B2FA82F24AB1C2F1200701FA5B
:1002180002F320FA07F7954047EA030894404FEAAB
:10022800154E230CB8FBFEF71FFA85FC0EFB17884A
:1002380043EA084307FB0CF1994209D9EB1807F187
:10024800FF3080F01B81994240F21881023F2B4415
:100258005B1AA4B2B3FBFEF00EFB103344EA03446E
:1002680000FB0CFCA44509D92C1900F1FF3380F0E0
:100278000781A44540F2048102382C4440EA074033
:10028800A4EB0C0400271EB1D4400023C6E90043A8
:100298003946BDE8F0878B4209D9002E00F0EB8083
:1002A8000027C6E9000138463946BDE8F087B3FAA9
:1002B80083F7002F47D18B4202D3824200F2FA80A3
:1002C800841A61EB030301209846002EE0D0C6E9AA
:1002D8000048DDE702B9FFDEB2FA82F2002A40F0F8
:1002E8008F80491B4FEA154E1FFA85F80127B1FB8D
:1002F800FEFC230C0EFB1C1143EA014308FB0CF126
:10030800994207D9EB180CF1FF3002D2994200F25A
:10031800CD808446591AA3B2B1FBFEF00EFB10142F
:1003280043EA044408FB00F8A04507D92C1900F15A
:10033800FF3302D2A04500F2B6801846A4EB0804A9
:1003480040EA0C409FE7C7F1200CBB4022FA0CFEA4
:100358004EEA030E01FA07F420FA0CF521FA0CF321
:100368004FEA1E482543B3FBF8F92C0C08FB193358
:100378001FFA8EFA44EA034309FB0AF49C4202FA84
:1003880007F200FA07F10BD91EEB030309F1FF305E
:1003980080F087809C4240F28480A9F1020973446E
:1003A8001B1BADB2B3FBF8F008FB103345EA03445E
:1003B80000FB0AFAA24508D91EEB040400F1FF333A
:1003C8006BD2A24569D90238744440EA0940A0FBBF
:1003D8000289A4EB0A044C45C2464B4654D351D07B
:1003E800002E69D0B1EB0A0564EB030404FA0CFC97
:1003F800FD40FC404CEA0505C6E90054002747E7E4
:10040800C2F1200320FA03F7954001FA02F021FA1D
:1004180003F34FEA154E3843010CB3FBFEF71FFAFE
:1004280085F80EFB173341EA034107FB08F38B42BB
:1004380004FA02F407D9691807F1FF3C2FD28B425E
:100448002DD9023F2944CB1A81B2B3FBFEF00EFB33
:10045800103341EA034100FB08F38B4207D96918BE
:1004680000F1FF3C17D28B4215D902382944C91A2A
:1004780040EA07473BE73746304609E70746E7E6DD
:100488001846FBE64145ABD2B8EB020A69EB0E020F
:1004980001381346A4E76046E9E7184695E767463A
:1004A800D1E781467CE702382C4447E7ACF1020CDF
:1004B8002B442FE7384608E73746E9E6704700BF80
:1004C80010B504460E4B18784FF47A73B3FBF0F36B
:1004D8000C4A1068B0FBF3F000F094F868B90F2CE0
:1004E80001D901200AE0002221464FF0FF3000F038
:1004F80049F8034B5C60002000E0012010BD00BFFC
:10050800000000201000002008B50B4B1A6842F4C8
:1005180000721A601A6842F480621A601A6842F41B
:1005280080721A60032000F01BF80020FFF7C8FF54
:1005380001F046FD002008BD003C0240034A116856
:10054800034B1B780B441360704700BF3800002032
:1005580000000020014B1868704700BF38000020D9
:10056800074AD36823F4E0631B041B0C000200F461
:10057800E060184340F0BF6040F40030D06070473E
:1005880000ED00E030B4174BDB68C3F30223C3F17E
:100598000704042C28BF04241D1D062D18D9033B6D
:1005A8004FF0FF3505FA04F421EA0401994005FAF1
:1005B80003F322EA0303194300280BDB0901C9B23C
:1005C80000F1604000F5614080F8001330BC7047CE
:1005D8000023E5E700F00F000901C9B2024B1954E6
:1005E800F4E700BF00ED00E014ED00E000F01F02AA
:1005F800400901239340024A42F82030704700BF67
:1006080000E100E00138B0F1807F0AD2064B586063
:10061800064AF02182F823100020986007221A6009
:1006280070470120704700BF10E000E000ED00E0D7
:10063800042805D0054A136823F0040313607047A3
:10064800024A136843F004031360704710E000E0A7
:10065800704708B5FFF7FCFF08BD90F83530DBB2EE
:10066800022B03D08023436501207047052380F8BF
:1006780035300268136823F00103136000207047C7
:1006880000230F2B00F2D780F0B482B039E00722A4
:1006980000E00022B2403A430234674E46F8242074
:1006A800664A1468EA4302EA04064F6817F4803F72
:1006B80001D045EA0406614C2660646802EA040633
:1006C8004F6817F4003F01D045EA04065B4C6660AA
:1006D800A46802EA04064F6817F4801F01D045EAAF
:1006E8000406564CA660E46822404E6816F4001FC3
:1006F80001D045EA0402514CE26001330F2B00F2AD
:10070800978001229A400C6804EA0205AA42F4D1B3
:100718004C68022C01D0122C10D1DE08083650F893
:1007280026C003F00704A7000F24BC402CEA040CE1
:100738000C69BC4044EA0C0440F8264004685F0099
:100748000326BE40F64306EA040C4C6804F0030492
:10075800BC4044EA0C0404604C6804F1FF3CBCF162
:10076800010F03D9112C01D0122C10D1846806EA8C
:10077800040CCC68BC4044EA0C048460446824EA55
:1007880002024C68C4F300149C4014434460C268DD
:1007980016408A68BA403243C2604A6812F0805FE5
:1007A800ABD000220192264A546C44F4804454642D
:1007B800526C02F480420192019A9C08A61C1E4ABF
:1007C80052F8267003F0030296000F22B24027EA7F
:1007D80002071C4A90423FF45CAF02F580629042E7
:1007E8001AD002F58062904218D002F580629042D9
:1007F80016D002F58062904214D002F580629042D1
:1008080012D002F58062904210D002F580629042C8
:100818003FF43DAF08223DE701223BE7022239E7DA
:10082800032237E7042235E7052233E7062231E7BA
:1008380002B0F0BC7047704700380140003C0140EE
:1008480000380240000002400369194201D100202B
:1008580070470120704712B90904816170478161AE
:1008680070470000002800F0BB8170B582B00446D4
:10087800036813F0010F3BD0A74B9B6803F00C03F0
:10088800042B2CD0A44B9B6803F00C03082B21D01D
:100898006368B3F5803F4FD0B3F5A02F52D09E4B7D
:1008A8001A6822F480321A601A6822F480221A60C8
:1008B8006368002B50D0FFF74DFE0546964B1B682A
:1008C80013F4003F14D1FFF745FE401B6428F5D907
:1008D80003208AE1904B5B6813F4800FD8D08E4BCD
:1008E8001B6813F4003F03D06368002B00F07A8183
:1008F800236813F0020F55D0874B9B6813F00C0F39
:100908003ED0854B9B6803F00C03082B33D0E3687B
:10091800002B68D0814B01221A60FFF71BFE0546A9
:100928007D4B1B6813F0020F54D1FFF713FE401BD9
:100938000228F5D9032058E1774A136843F4803335
:100948001360B5E7744B1A6842F480221A601A687B
:1009580042F480321A60ABE7FFF7FCFD05466E4BA8
:100968001B6813F4003FC3D0FFF7F4FD401B642855
:10097800F5D9032039E1684B5B6813F4800FC6D1C1
:10098800654B1B6813F0020F04D0E368012B01D0FC
:1009980001202AE1604A136823F0F803216943EA39
:1009A800C1031360236813F0080F40D0636963B371
:1009B8005B4B01221A60FFF7CDFD0546564B5B6F76
:1009C80013F0020F33D1FFF7C5FD401B0228F5D9FC
:1009D80003200AE1504A136823F0F803216943EA27
:1009E800C1031360DEE74D4B00221A60FFF7B2FD2A
:1009F8000546494B1B6813F0020FD3D0FFF7AAFD39
:100A0800401B0228F5D90320EFE0454B00221A606D
:100A1800FFF7A0FD0546404B5B6F13F0020F06D0B1
:100A2800FFF798FD401B0228F5D90320DDE0236875
:100A380013F0040F79D0384B1B6C13F0805F33D15F
:100A480000230193344B1A6C42F080521A641B6CD9
:100A580003F080530193019B0125324B1B6813F46B
:100A6800807F23D0A368012B34D0052B38D02A4BA4
:100A78001A6F22F001021A671A6F22F004021A672D
:100A8800A368002B36D0FFF765FD0646224B1B6F87
:100A980013F0020F48D1FFF75DFD801B41F2883348
:100AA8009842F3D90320A0E00025D6E71D4A136831
:100AB80043F480731360FFF74DFD0646194B1B681E
:100AC80013F4807FCED1FFF745FD801B0228F5D9AE
:100AD80003208AE0104A136F43F001031367CFE73E
:100AE8000D4B1A6F42F004021A671A6F42F00102A6
:100AF8001A67C5E7FFF72EFD0646074B1B6F13F075
:100B0800020F11D0FFF726FD801B41F2883398426F
:100B1800F3D9032069E000BF0038024000004742D3
:100B2800800E474200700040E5B9A369002B5BD0F6
:100B3800304A926802F00C02082A58D0022B17D0CB
:100B48002D4B00221A60FFF705FD0446294B1B6850
:100B580013F0007F42D0FFF7FDFC001B0228F5D9F7
:100B6800032042E0234A136C23F080531364DCE72C
:100B7800214B00221A60FFF7EDFC05461D4B1B6850
:100B880013F0007F06D0FFF7E5FC401B0228F5D9DB
:100B980003202AE0E369226A1343626A43EA821364
:100BA800A26A5208013A43EA0243E26A43EA02634C
:100BB800104A5360104B01221A60FFF7CBFC044621
:100BC8000C4B1B6813F0007F06D1FFF7C3FC001B1A
:100BD8000228F5D9032008E0002006E0002004E000
:100BE80001207047012000E0002002B070BD012004
:100BF800FBE700BF0038024060004742324B9B6869
:100C080003F00C03042B5CD0082B01D02F4870474D
:100C18002DE9F04B2C4B5A6802F03F025B6813F445
:100C2800800F2BD0284B5B68C3F388131E46002720
:100C38005C010025E41A65EB0705A90141EA946106
:100C4800A001001B61EB0501CB0043EA5073C4000F
:100C5800A01943EB07014B0243EAD0534402204654
:100C680019460023FFF7ACFA174B5B68C3F301433F
:100C780001335B00B0FBF3F0BDE8F08B124B5B680F
:100C8800C3F388131E4600275C010025E41A65EBB0
:100C98000705A90141EA9461A001001B61EB050168
:100CA800CB0043EA5073C400A01943EB07018B0241
:100CB80043EA90538402204619460023FFF780FA3E
:100CC800D2E70348704700BF003802400024F40010
:100CD80000127A00002800F09D8070B504464F4B42
:100CE8001B6803F00F038B4209D2CBB24B4A137037
:100CF800136803F00F038B4201D0012070BD2368F5
:100D080013F0020F17D013F0040F04D0444A93686D
:100D180043F4E0539360236813F0080F04D0404A6B
:100D2800936843F4604393603D4A936823F0F0036B
:100D3800A068034393600D46236813F0010F32D077
:100D48006368012B21D09A1E012A25D9344A1268DA
:100D580012F0020F60D032498A6822F0030213436E
:100D68008B60FFF7F7FB06462D4B9B6803F00C03DF
:100D78006268B3EB820F16D0FFF7ECFB801B41F2E1
:100D880088339842F0D90320B8E7254A126812F44C
:100D9800003FE0D10120B1E7214A126812F0007F3C
:100DA800D9D10120AAE71D4B1B6803F00F03AB4202
:100DB80009D9EAB2194B1A701B6803F00F03AB424A
:100DC80001D001209AE7236813F0040F06D0144AD3
:100DD800936823F4E053E1680B439360236813F0AE
:100DE800080F07D00E4A936823F46043216943EA49
:100DF800C1039360FFF702FF094B9B68C3F303131A
:100E0800084AD35CD840084B18600020FFF758FB0D
:100E1800002073E70120704701206FE7003C024083
:100E2800003802407422000810000020014B1868A6
:100E3800704700BF1000002008B5FFF7F7FF044B0C
:100E48009B68C3F38223034AD35CD84008BD00BF24
:100E5800003802408422000808B5FFF7E7FF044B7A
:100E68009B68C3F34233034AD35CD84008BD00BF34
:100E7800003802408422000870B4036A23F001039A
:100E88000362036A4268846924F073040D6845EAC2
:100E9800040623F002048B6823430C4DA84202D0B9
:100EA8000B4CA0420BD123F00803CD682B4323F051
:100EB800040322F440724D6915438A692A4342604B
:100EC80086614A684263036270BC70470000014053
:100ED8000004014030B4036A23F480730362036A98
:100EE8004268C46924F073040D682C4323F400732A
:100EF8008D6843EA05230E4DA84203D005F58065A9
:100F0800A8420ED123F40063CD6843EA052323F4F5
:100F1800806322F440524D6942EA05128D6942EA23
:100F280005124260C4614A68C263036230BC7047FC
:100F38000000014030B4036A23F480530362036A5B
:100F48004468C26922F4E6420D6842EA052223F4A5
:100F580000538D6843EA0533094DA84203D005F5CF
:100F68008065A84204D124F480444D6944EA85147C
:100F78004460C2614A680264036230BC704700BFC3
:100F88000000014010B4036A046A24F001040462FA
:100F9800846924F0F00444EA021223F00A030B43A4
:100FA800826103625DF8044B704710B4036A23F052
:100FB800100303628469036A24F4704444EA023229
:100FC80023F0A00343EA0113826103625DF8044B36
:100FD8007047836823F0700341F00701194381606B
:100FE800704710B4846824F47F4442EA03230B4317
:100FF800234383605DF8044B70470268D36843F06D
:101008000103D3600268136843F0010313600020F2
:101018007047704790F83830012B7DD010B50446E2
:10102800012380F83830022380F839300268936849
:1010380023F47F4323F0770393600B68402B57D04A
:1010480010D9702B3ED01FD8502B47D0602B32D1EF
:10105800CA6849680068FFF7A8FF60212068FFF7A1
:10106800B8FF28E0102B4DD008D9202B4FD0302BBB
:1010780021D130210068FFF7ACFF1CE0DBB900216B
:101088000068FFF7A6FF16E0B3F5805F0ED0B3F552
:10109800005F10D1CB684A6889680068FFF7A1FF34
:1010A8002268936843F48043936004E0026893687D
:1010B80023F007039360012384F83930002084F873
:1010C800380010BDCB684A6889680068FFF789FF57
:1010D8002268936843F077039360ECE7CA6849682D
:1010E8000068FFF74FFF50212068FFF772FFE2E723
:1010F800CA6849680068FFF745FF40212068FFF784
:1011080068FFD8E710210068FFF763FFD3E72021C5
:101118000068FFF75EFFCEE7022070477047704710
:101128007047704710B5044603681A6912F0020F39
:1011380011D0DA6812F0020F0DD06FF002021A61B6
:101148000123037603689B6913F0030F70D0FFF740
:10115800E6FF0023237623681A6912F0040F12D0E1
:10116800DA6812F0040F0ED06FF004021A6102233D
:10117800237623689B6913F4407F5FD02046FFF7EE
:10118800CEFF0023237623681A6912F0080F12D0C5
:10119800DA6812F0080F0ED06FF008021A61042303
:1011A80023762368DB6913F0030F4ED02046FFF740
:1011B800B6FF0023237623681A6912F0100F12D0A5
:1011C800DA6812F0100F0ED06FF010021A610823BF
:1011D80023762368DB6913F4407F3DD02046FFF770
:1011E8009EFF0023237623681A6912F0010F03D0AB
:1011F800DA6812F0010F36D123681A6912F0800FED
:1012080003D0DA6812F0800F34D123681A6912F01B
:10121800400F03D0DA6812F0400F32D123681A6900
:1012280012F0200F03D0DA6812F0200F30D110BD71
:10123800FFF774FF2046FFF773FF8AE72046FFF7A2
:101248006DFF2046FFF76CFF9BE72046FFF766FF20
:101258002046FFF765FFACE72046FFF75FFF204613
:10126800FFF75EFFBDE76FF001021A61204600F04C
:1012780045FDC1E76FF080021A61204600F098F939
:10128800C3E76FF040021A612046FFF74AFFC5E73F
:101298006FF020021A61204600F089F9C7E70000C4
:1012A80003682E4A904212D0B0F1804F0FD0A2F5B9
:1012B8007C4290420BD002F58062904207D002F542
:1012C8008062904203D002F57842904203D123F025
:1012D80070034A681343214A90422AD0B0F1804FE4
:1012E80027D0A2F57C42904223D002F5806290423A
:1012F8001FD002F5806290421BD002F578429042DE
:1013080017D002F57052904213D002F580629042D5
:101318000FD002F5806290420BD0A2F5983290422D
:1013280007D002F58062904203D002F580629042B5
:1013380003D123F44073CA68134303608B68C36204
:101348000B688362054B984203D003F5806398428B
:1013580001D10B6903630123436170470000014019
:10136800A8B110B5044690F839305BB1022384F86F
:101378003930211D2068FFF793FF012384F83930A5
:10138800002010BD80F8383000F064FEEEE7012040
:101398007047A8B110B5044690F839305BB1022304
:1013A80084F83930211D2068FFF77AFF012384F87B
:1013B8003930002010BD80F83830FFF72AFEEEE7FC
:1013C8000120704730B4036A23F010030362036AF4
:1013D8004468826922F4E6420D6842EA052223F055
:1013E80020038D6843EA05130E4DA84203D005F586
:1013F8008065A8420ED123F08003CD6843EA051327
:1014080023F0400324F440644D6944EA85048D695F
:1014180044EA8504446082614A688263036230BC9E
:10142800704700BF0000014038B590F83830012BF4
:1014380066D00D460446012380F83830022380F830
:1014480039300C2A1AD8DFE802F0071919192019BF
:1014580019193419191947000068FFF70DFD22689A
:10146800936943F0080393612268936923F00403A6
:1014780093612268936929690B439361012384F876
:101488003930002084F8380038BD0068FFF79AFF2B
:101498002268936943F4006393612268936923F493
:1014A8008063936122689369296943EA0123936100
:1014B800E4E70068FFF70EFD2268D36943F00803EC
:1014C800D3612268D36923F00403D3612268D36906
:1014D80029690B43D361D1E70068FFF72BFD226828
:1014E800D36943F40063D3612268D36923F480632A
:1014F800D3612268D369296943EA0123D361BDE72F
:101508000220C1E710B4012303FA01F4036A23EAB5
:1015180004030362036A8A40134303625DF8044BC1
:101528007047000010B5044601220068FFF7EAFF83
:101538002368094A934203D002F58062934203D19B
:101548005A6C42F400425A642268136843F001035B
:101558001360002010BD00BF0000014090F8383033
:10156800012B22D030B4012280F83820022380F8E1
:1015780039300468636823F0700363600468636843
:101588000D682B4363600468A36823F08003A3609D
:101598000468A36849680B43A36080F839200023D6
:1015A80080F83830184630BC7047022070477047C2
:1015B80070470268D36823F49073D3600268536954
:1015C80023F001035361202380F83A30704790F8E4
:1015D8003930DBB2212B2AD18368B3F5805F16D06E
:1015E800036A5A1C02621A7803685A60C38C013B6A
:1015F8009BB2C384EBB90268D36823F08003D3603D
:101608000268D36843F04003D36000207047036A40
:101618001B880268C3F30803536003691BB9036A94
:1016280002330362E2E7036A01330362DEE7022062
:1016380070470020704700002DE9F8430446016810
:101648000A6922F44052C36813430B610168CA68EF
:1016580022F4164222F00C02836800690343606991
:101668000343E06903431343CB6021684A6922F4CA
:101678004072A36913434B61E369B3F5004F60D02F
:101688002368B84A934200F0148102F580629342BD
:1016980000F00F81FFF7D0FB00EB800000EB80002B
:1016A8006568AD00B0FBF5F5AF4FA7FB05356D09D3
:1016B8002E01FFF7C1FB00EB800000EB800065689E
:1016C800AD00B0FBF5F9FFF7B7FB00EB800000EBCE
:1016D80080006568AD00B0FBF5F5A7FB05356D0921
:1016E8004FF0640808FB15952D013235A7FB053529
:1016F8006D0905F0F0053544FFF79EFB00EB80000F
:1017080000EB80006668B600B0FBF6F6FFF794FBC6
:1017180000EB800000EB800063689B00B0FBF3F0F7
:10172800A7FB0030400908FB10684FEA081808F1C9
:101738003208A7FB0837C7F3431723682F449F6075
:101748000DE12368874A93425BD002F58062934299
:1017580057D0FFF771FB00EB800000EB8000656855
:101768006D00B0FBF5F5804FA7FB05356D092E011F
:10177800FFF762FB00EB800000EB800065686D00FE
:10178800B0FBF5F9FFF758FB00EB800000EB800099
:1017980065686D00B0FBF5F5A7FB05356D094FF0E1
:1017A800640808FB1595ED003235A7FB05356D0972
:1017B8006D0005F4F8753544FFF73EFB00EB80003B
:1017C80000EB800066687600B0FBF6F6FFF734FBA6
:1017D80000EB800000EB800063685B00B0FBF3F374
:1017E800A7FB03235B0908FB13684FEAC80808F145
:1017F8003208A7FB0837C7F3421723682F449F60B6
:10180800ADE0FFF729FB00EB800000EB8000656886
:101818006D00B0FBF5F5544FA7FB05356D092E019A
:10182800FFF71AFB00EB800000EB800065686D0095
:10183800B0FBF5F9FFF710FB00EB800000EB800030
:1018480065686D00B0FBF5F5A7FB05356D094FF030
:10185800640808FB1595ED003235A7FB05356D09C1
:101868006D0005F4F8753544FFF7F6FA00EB8000D3
:1018780000EB800066687600B0FBF6F6FFF7ECFA3E
:1018880000EB800000EB800063685B00B0FBF3F3C3
:10189800A7FB03235B0908FB13684FEAC80808F194
:1018A8003208A7FB0837C7F3421723682F449F6005
:1018B80055E0FFF7D1FA00EB800000EB8000656887
:1018C800AD00B0FBF5F5284FA7FB05356D092E01D6
:1018D800FFF7C2FA00EB800000EB80006568AD00FE
:1018E800B0FBF5F9FFF7B8FA00EB800000EB8000D9
:1018F8006568AD00B0FBF5F5A7FB05356D094FF040
:10190800640808FB15952D013235A7FB05356D09CF
:1019180005F0F0053544FFF79FFA00EB800000EB77
:1019280080006668B600B0FBF6F6FFF795FA00EBA4
:10193800800000EB800063689B00B0FBF3F0A7FB1E
:101948000030400908FB10684FEA081808F132080F
:10195800A7FB0837C7F3431723682F449F60BDE8E8
:10196800F88300BF001001401F85EB5158B310B534
:10197800044690F839300BB3242384F839302268B0
:10198800D36823F40053D3602046FFF755FE22683E
:10199800136923F4904313612268536923F02A03DF
:1019A80053612268D36843F40053D3600020E06396
:1019B800202384F8393084F83A3010BD80F8383064
:1019C80000F084FBD8E70120704790F83A30DBB28A
:1019D800202B1BD1E1B1EAB190F83830012B1BD094
:1019E80081628285C2850023C363222280F83A205F
:1019F80080F8383001684A6942F001024A6101689A
:101A0800CA6842F49072CA6018467047022070474C
:101A1800012070470120704702207047704708B5C1
:101A28000168CB6823F04003CB60202380F839306D
:101A3800FFF7F4FF002008BD08B590F83A30DBB294
:101A4800222B40D18368B3F5805F0ED0036903BBB6
:101A580003685A68836A591C81621A70C38D013BF6
:101A68009BB2C385F3B100202EE0826A036943B9B3
:101A780003685B68C3F308031380836A02338362D5
:101A8800ECE703685B68DBB21380836A0133836227
:101A9800E4E703685B68826A511C816203F07F0394
:101AA8001370DBE70268D36823F49073D36002688D
:101AB800536923F001035361202380F83A3000F082
:101AC800EBF8002000E0022008BD704710B504467E
:101AD80002681368D168526913F00F0005D113F03A
:101AE800200F02D011F0200F53D1002867D012F038
:101AF800010202D111F4907F61D013F0010F06D0DA
:101B080011F4807F03D0E06B40F00100E06313F034
:101B1800040F04D01AB1E06B40F00200E06313F048
:101B2800020F04D01AB1E06B40F00400E06313F038
:101B3800080F04D01AB1E26B42F00802E263E26BCC
:101B4800002A48D013F0200F02D011F0200F24D122
:101B580023685B6903F04003E26B12F0080F00D1C1
:101B68003BB32046FFF725FD23685A6912F0400F62
:101B78001BD05A6922F040025A61636B8BB11A4A32
:101B88001A65606BFEF769FD28B3606B036D9847B3
:101B980021E02046FFF750FF1DE02046FFF74CFFED
:101BA800D6E72046FFF791FF15E02046FFF78DFFA7
:101BB80011E02046FFF789FF0023E3630BE013F0F1
:101BC800800F02D011F0800F06D113F0400F02D021
:101BD80011F0400F04D110BD2046FFF7F8FCFAE7DA
:101BE8002046FFF71CFFF6E7F51B000808B5806BD9
:101BF8000023C385C384FFF768FF08BD30B58BB0E9
:101C080000240194224B1A6B42F080021A631A6B6B
:101C180002F080020192019A02941A6B42F00202C9
:101C28001A631A6B02F002020292029A03941A6B68
:101C380042F008021A631A6B02F008020392039A30
:101C480004941A6B42F004021A631B6B03F004033A
:101C58000493049B0F4D22464FF400612846FEF77B
:101C6800FAFD4FF400630593012306930794089443
:101C780005A92846FEF704FD4FF480530593069402
:101C88000223079305A92846FEF7FAFC0BB030BDDE
:101C9800003802400004024008B50268124B9A421C
:101CA80000D008BD114B1B78114A13704F2B09D077
:101CB800462B11D0522B13D05A2B06D10D4B032291
:101CC8001A6002E00B4B00221A600A4B9A880749F7
:101CD8000948FFF77AFEE4E7064B01221A60F4E7A9
:101CE800044B02221A60F0E700480040BC000020C4
:101CF8003C000020080000207C0000200268124BF5
:101D08009A4200D07047114B1B68002B0FDDB3F5CA
:101D18007A7F02DB0D4A002151600C4A526852B1A9
:101D2800012A0CD0094B1A68074B5A63EAE7074A9D
:101D380001215160EBE7013B044A1360F2E70133EC
:101D4800024A1360EEE700BF0008004030000020A0
:101D5800FEE7000008B50B480B4B03604FF4165321
:101D6800436000238360C36003610C224261836186
:101D7800C361FFF7FBFD00B908BD40F253110348EA
:101D8800FFF7E6FF7C000020004800408C22000896
:101D980000B58FB02648274B0360532343600023C8
:101DA800836040F2E732C2600361FFF7D9FA28BBCB
:101DB8000EA94FF4805341F8103D1D48FFF72AF94A
:101DC80008BB1B48FFF7E5FA10BB002308930993EB
:101DD80008A91748FFF7C2FBF8B96023019300224E
:101DE80002920392059201A91148FFF71DFBC8B999
:101DF8000F4800F04FF90FB05DF804FB40F22311D3
:101E08000D48FFF7A5FF40F229110B48FFF7A0FF87
:101E18004FF497710848FFF79BFF40F235110648C9
:101E2800FFF796FF4FF49F710348FFF791FF00BF3C
:101E380040000020000800408C22000800B595B042
:101E4800002101912B4B1A6C42F080521A641B6CD2
:101E580003F080530193019B0291274B1A6842F4C7
:101E680080421A601B6803F480430293029B01239B
:101E780008934FF48033099302220E924FF48003A3
:101E88000F9304231093A82111911292139308A879
:101E9800FEF7E8FC20BB0F230393022304930023DF
:101EA80005934FF4A05306934FF4805307930521ED
:101EB80003A8FEF70FFFB8B9FEF7B8FF0F4BA3FB57
:101EC80000308009FEF79EFB0420FEF7B1FB0022DC
:101ED80011464FF0FF30FEF755FB15B05DF804FBD7
:101EE800F7210748FFF734FF40F205110448FFF7D0
:101EF8002FFF00BF0038024000700040D34D621031
:101F08008C22000810B5FEF7FFFAFFF797FFFFF7DE
:101F180075FEFFF71FFFFFF73BFF244B9A88244904
:101F28002448FFF752FD244C2046FFF766F80021AD
:101F38002046FFF7F7FA05E000224FF400611F483A
:101F4800FEF789FC194B1B68032BFBD801A252F83A
:101F580023F000BF411F00086D1F00087B1F000809
:101F6800A71F000801224FF400611448FEF773FC14
:101F7800E8E74FF480511148FEF766FC40B10128AC
:101F8800E0D100224FF400610C48FEF764FCD9E769
:101F980001224FF400610948FEF75DFCD2E70022F8
:101FA8004FF480510548FEF756FCCBE708000020A7
:101FB800BC0000207C0000204000002000040240FB
:101FC80010B582B000240094214B5A6C42F4804230
:101FD8005A645A6C02F480420092009A01941A6C76
:101FE80042F080521A641B6C03F080530193019BEA
:101FF8000320FEF7B5FA224621466FF00B00FEF7E4
:10200800C1FA224621466FF00A00FEF7BBFA2246C3
:1020180021466FF00900FEF7B5FA224621466FF017
:102028000400FEF7AFFA224621466FF00300FEF7E0
:10203800A9FA224621466FF00100FEF7A3FA2246CC
:1020480021464FF0FF30FEF79DFA02B010BD00BFE9
:102058000038024002680E4B9A4200D0704700B523
:1020680083B00021019103F50C331A6C42F004028D
:102078001A641B6C03F004030193019B0A461E209B
:10208800FEF780FA1E20FEF7B1FA03B05DF804FBF4
:102098000008004002680B4B9A4200D0704700B518
:1020A80087B04FF4805301930223029300220392D6
:1020B8000492059301A90448FEF7E2FA07B05DF817
:1020C80004FB00BF00080040000C02400268164BE9
:1020D8009A4200D0704710B586B00024009403F5EA
:1020E800F8331A6C42F480221A641B6C03F48023C0
:1020F8000093009B4FF44063019302230293012352
:102108000393032304930723059301A90748FEF7C4
:10211800B7FA224621462720FEF734FA2720FEF791
:1021280065FA06B010BD00BF004800400008024034
:102138007047FEE7FEE7FEE7FEE770477047704727
:1021480008B5FEF7FBF9FEF784FA08BD08B50248A2
:10215800FEF7E8FF08BD00BF4000002008B50248B0
:10216800FFF7B4FC08BD00BF7C0000200F49D1F880
:10217800883043F47003C1F888300D4B1A6842F078
:1021880001021A60002098601A6822F0847222F412
:1021980080321A60074A5A601A6822F480221A604C
:1021A800D8604FF000638B60704700BF00ED00E01F
:1021B8000038024010300024DFF834D0002103E05A
:1021C8000C4B5B58435004310B480C4B42189A4255
:1021D800F6D30B4A02E0002342F8043B094B9A422B
:1021E800F9D3FFF7C3FF00F011F8FFF78BFE704734
:1021F80000000220AC22000800000020140000208B
:1022080014000020C0000020FEE7000070B50D4E4D
:102218000D4CA41BA4100025A54209D10B4E0C4C53
:1022280000F018F8A41BA4100025A54205D170BD24
:1022380056F8253098470135EEE756F82530984787
:102248000135F2E7A4220008A4220008A42200080D
:10225800A8220008F8B500BFF8BC08BC9E46704725
:0C226800F8B500BFF8BC08BC9E467047EB
:102274000000000000000000010203040607080932
:1022840000000000010203042E2E2F5372632F6DF1
:0822940061696E2E6300000079
:08229C005CDFFF7F0100000080
:0422A400AD01000880
:0422A80089010008A0
:1022AC000100000010000000FFFFFFFF0100000014
:0422BC000024F40006
:04000005080021C10D
:00000001FF
